{
  "_format": "hh-sol-artifact-1",
  "contractName": "SurferMonkeyMixer",
  "sourceName": "contracts/SurferMonkeyMixer.sol",
  "abi": [
    {
      "inputs": [
        {
          "internalType": "contract IVerifier",
          "name": "_verifier",
          "type": "address"
        },
        {
          "internalType": "contract IRegister",
          "name": "_dappReg",
          "type": "address"
        },
        {
          "internalType": "uint16",
          "name": "_chainID",
          "type": "uint16"
        }
      ],
      "stateMutability": "nonpayable",
      "type": "constructor"
    },
    {
      "anonymous": false,
      "inputs": [
        {
          "indexed": false,
          "internalType": "uint256",
          "name": "nullifierHash",
          "type": "uint256"
        },
        {
          "indexed": false,
          "internalType": "address",
          "name": "destination_SC_address",
          "type": "address"
        }
      ],
      "name": "Withdrawal",
      "type": "event"
    },
    {
      "inputs": [],
      "name": "DECIPHER_PUB_KEY",
      "outputs": [
        {
          "internalType": "uint256",
          "name": "",
          "type": "uint256"
        }
      ],
      "stateMutability": "view",
      "type": "function"
    },
    {
      "inputs": [
        {
          "internalType": "uint256",
          "name": "_root",
          "type": "uint256"
        }
      ],
      "name": "DepositRoot",
      "outputs": [],
      "stateMutability": "nonpayable",
      "type": "function"
    },
    {
      "inputs": [
        {
          "internalType": "uint256",
          "name": "_root",
          "type": "uint256"
        }
      ],
      "name": "UpdateBlackListRoot",
      "outputs": [],
      "stateMutability": "nonpayable",
      "type": "function"
    },
    {
      "inputs": [],
      "name": "blackListRoot",
      "outputs": [
        {
          "internalType": "uint256",
          "name": "",
          "type": "uint256"
        }
      ],
      "stateMutability": "view",
      "type": "function"
    },
    {
      "inputs": [],
      "name": "dappReg",
      "outputs": [
        {
          "internalType": "contract IRegister",
          "name": "",
          "type": "address"
        }
      ],
      "stateMutability": "view",
      "type": "function"
    },
    {
      "inputs": [
        {
          "internalType": "uint256",
          "name": "_root",
          "type": "uint256"
        }
      ],
      "name": "isKnownRoot",
      "outputs": [
        {
          "internalType": "bool",
          "name": "",
          "type": "bool"
        }
      ],
      "stateMutability": "view",
      "type": "function"
    },
    {
      "inputs": [
        {
          "internalType": "uint256",
          "name": "_nullifierHash",
          "type": "uint256"
        }
      ],
      "name": "isSpent",
      "outputs": [
        {
          "internalType": "bool",
          "name": "",
          "type": "bool"
        }
      ],
      "stateMutability": "view",
      "type": "function"
    },
    {
      "inputs": [
        {
          "internalType": "uint256",
          "name": "",
          "type": "uint256"
        }
      ],
      "name": "nullifierHashes",
      "outputs": [
        {
          "internalType": "bool",
          "name": "",
          "type": "bool"
        }
      ],
      "stateMutability": "view",
      "type": "function"
    },
    {
      "inputs": [],
      "name": "oracleKey",
      "outputs": [
        {
          "internalType": "address",
          "name": "",
          "type": "address"
        }
      ],
      "stateMutability": "view",
      "type": "function"
    },
    {
      "inputs": [
        {
          "internalType": "uint256",
          "name": "_DECIPHER_PUB_KEY",
          "type": "uint256"
        }
      ],
      "name": "setDecipherKey",
      "outputs": [],
      "stateMutability": "nonpayable",
      "type": "function"
    },
    {
      "inputs": [],
      "name": "thisChainID",
      "outputs": [
        {
          "internalType": "uint16",
          "name": "",
          "type": "uint16"
        }
      ],
      "stateMutability": "view",
      "type": "function"
    },
    {
      "inputs": [],
      "name": "verifier",
      "outputs": [
        {
          "internalType": "contract IVerifier",
          "name": "",
          "type": "address"
        }
      ],
      "stateMutability": "view",
      "type": "function"
    },
    {
      "inputs": [
        {
          "internalType": "uint256[2]",
          "name": "a",
          "type": "uint256[2]"
        },
        {
          "internalType": "uint256[2][2]",
          "name": "b",
          "type": "uint256[2][2]"
        },
        {
          "internalType": "uint256[2]",
          "name": "c",
          "type": "uint256[2]"
        },
        {
          "internalType": "uint256[13]",
          "name": "input",
          "type": "uint256[13]"
        },
        {
          "internalType": "bytes",
          "name": "_payload",
          "type": "bytes"
        },
        {
          "internalType": "address",
          "name": "_targetSC",
          "type": "address"
        },
        {
          "internalType": "bytes",
          "name": "_publicInputParams",
          "type": "bytes"
        },
        {
          "internalType": "uint16",
          "name": "_destinationChainId",
          "type": "uint16"
        },
        {
          "internalType": "bytes32",
          "name": "_dAppGlobalHash",
          "type": "bytes32"
        },
        {
          "internalType": "uint8",
          "name": "_function",
          "type": "uint8"
        }
      ],
      "name": "withdraw",
      "outputs": [],
      "stateMutability": "nonpayable",
      "type": "function"
    }
  ],
  "bytecode": "0x6101006040527f22a63d2a0947efb7c94ec15529e63dd37b670f5f40aecc88de6aefa01e5c7ea96001553480156200003657600080fd5b50604051620026873803806200268783398181016040528101906200005c919062000221565b82828260016000819055508273ffffffffffffffffffffffffffffffffffffffff1660808173ffffffffffffffffffffffffffffffffffffffff16815250508173ffffffffffffffffffffffffffffffffffffffff1660a08173ffffffffffffffffffffffffffffffffffffffff16815250508061ffff1660c08161ffff16815250503373ffffffffffffffffffffffffffffffffffffffff1660e08173ffffffffffffffffffffffffffffffffffffffff16815250505050505050506200027d565b600080fd5b600073ffffffffffffffffffffffffffffffffffffffff82169050919050565b6000620001518262000124565b9050919050565b6000620001658262000144565b9050919050565b620001778162000158565b81146200018357600080fd5b50565b60008151905062000197816200016c565b92915050565b6000620001aa8262000144565b9050919050565b620001bc816200019d565b8114620001c857600080fd5b50565b600081519050620001dc81620001b1565b92915050565b600061ffff82169050919050565b620001fb81620001e2565b81146200020757600080fd5b50565b6000815190506200021b81620001f0565b92915050565b6000806000606084860312156200023d576200023c6200011f565b5b60006200024d8682870162000186565b93505060206200026086828701620001cb565b925050604062000273868287016200020a565b9150509250925092565b60805160a05160c05160e05161239f620002e86000396000818161028a0152818161040f015281816104fc01526106750152600081816103c10152610bfc0152600081816106c901528181610a290152610c6a01526000818161039701526107f6015261239f6000f3fe608060405234801561001057600080fd5b50600436106100cf5760003560e01c80636b0f95a41161008c578063a6232a9311610066578063a6232a9314610200578063cfac37de14610230578063e38aabc71461024e578063e5a8668a1461026c576100cf565b80636b0f95a4146101aa578063837e4edf146101c65780639d1f048e146101e2576100cf565b80631744318e146100d45780631f79a1e9146100f05780632b7ac3f3146101205780632b9ef8981461013e578063353308851461015c5780635a129efe1461017a575b600080fd5b6100ee60048036038101906100e99190611083565b610288565b005b61010a60048036038101906101059190611083565b610375565b60405161011791906110cb565b60405180910390f35b610128610395565b6040516101359190611165565b60405180910390f35b6101466103b9565b604051610153919061118f565b60405180910390f35b6101646103bf565b60405161017191906111c7565b60405180910390f35b610194600480360381019061018f9190611083565b6103e3565b6040516101a191906110cb565b60405180910390f35b6101c460048036038101906101bf9190611083565b61040d565b005b6101e060048036038101906101db9190611083565b6104fa565b005b6101ea610673565b6040516101f79190611203565b60405180910390f35b61021a60048036038101906102159190611083565b610697565b60405161022791906110cb565b60405180910390f35b6102386106c1565b604051610245919061118f565b60405180910390f35b6102566106c7565b604051610263919061123f565b60405180910390f35b6102866004803603810190610281919061167f565b6106eb565b005b7f000000000000000000000000000000000000000000000000000000000000000073ffffffffffffffffffffffffffffffffffffffff163373ffffffffffffffffffffffffffffffffffffffff1614610316576040517f08c379a000000000000000000000000000000000000000000000000000000000815260040161030d906117f8565b60405180910390fd5b60026000540361035b576040517f08c379a000000000000000000000000000000000000000000000000000000000815260040161035290611864565b60405180910390fd5b600260008190555080600181905550600160008190555050565b60046020528060005260406000206000915054906101000a900460ff1681565b7f000000000000000000000000000000000000000000000000000000000000000081565b60015481565b7f000000000000000000000000000000000000000000000000000000000000000081565b60006004600083815260200190815260200160002060009054906101000a900460ff169050919050565b7f000000000000000000000000000000000000000000000000000000000000000073ffffffffffffffffffffffffffffffffffffffff163373ffffffffffffffffffffffffffffffffffffffff161461049b576040517f08c379a0000000000000000000000000000000000000000000000000000000008152600401610492906117f8565b60405180910390fd5b6002600054036104e0576040517f08c379a00000000000000000000000000000000000000000000000000000000081526004016104d790611864565b60405180910390fd5b600260008190555080600381905550600160008190555050565b7f000000000000000000000000000000000000000000000000000000000000000073ffffffffffffffffffffffffffffffffffffffff163373ffffffffffffffffffffffffffffffffffffffff1614610588576040517f08c379a000000000000000000000000000000000000000000000000000000000815260040161057f906117f8565b60405180910390fd5b6002600054036105cd576040517f08c379a00000000000000000000000000000000000000000000000000000000081526004016105c490611864565b60405180910390fd5b6002600081905550600015156002600083815260200190815260200160002060009054906101000a900460ff1615151461063c576040517f08c379a0000000000000000000000000000000000000000000000000000000008152600401610633906118d0565b60405180910390fd5b60016002600083815260200190815260200160002060006101000a81548160ff021916908315150217905550600160008190555050565b7f000000000000000000000000000000000000000000000000000000000000000081565b60006002600083815260200190815260200160002060009054906101000a900460ff169050919050565b60035481565b7f000000000000000000000000000000000000000000000000000000000000000081565b600260005403610730576040517f08c379a000000000000000000000000000000000000000000000000000000000815260040161072790611864565b60405180910390fd5b60026000819055506000876009600d811061074e5761074d6118f0565b5b602002015190506004600082815260200190815260200160002060009054906101000a900460ff16156107b6576040517f08c379a00000000000000000000000000000000000000000000000000000000081526004016107ad9061196b565b60405180910390fd5b60016004600083815260200190815260200160002060006101000a81548160ff02191690831515021790555060006107f2898989888a89610976565b90507f000000000000000000000000000000000000000000000000000000000000000073ffffffffffffffffffffffffffffffffffffffff1663f143a75e8d8d8d8d6040518563ffffffff1660e01b81526004016108539493929190611bb8565b6020604051808303816000875af1158015610872573d6000803e3d6000fd5b505050506040513d601f19601f820116820180604052508101906108969190611c2b565b6108d5576040517f08c379a00000000000000000000000000000000000000000000000000000000081526004016108cc90611ca4565b60405180910390fd5b60006108e4828a898b88610de2565b905080610926576040517f08c379a000000000000000000000000000000000000000000000000000000000815260040161091d90611d10565b60405180910390fd5b7fd964a27d45f595739c13d8b1160b57491050cacf3a2e5602207277d6228f64ee8389604051610957929190611d30565b60405180910390a1505050600160008190555050505050505050505050565b600080876000600d811061098d5761098c6118f0565b5b602002015190506000886001600d81106109aa576109a96118f0565b5b602002015190506000896008600d81106109c7576109c66118f0565b5b6020020151905060008a600a600d81106109e4576109e36118f0565b5b6020020151905060008b600b600d8110610a0157610a006118f0565b5b6020020151905060008c600c600d8110610a1e57610a1d6118f0565b5b6020020151905060007f000000000000000000000000000000000000000000000000000000000000000073ffffffffffffffffffffffffffffffffffffffff1663886449bf8a6040518263ffffffff1660e01b8152600401610a809190611d68565b602060405180830381865afa158015610a9d573d6000803e3d6000fd5b505050506040513d601f19601f82011682018060405250810190610ac19190611d98565b90506002600086815260200190815260200160002060009054906101000a900460ff16610b23576040517f08c379a0000000000000000000000000000000000000000000000000000000008152600401610b1a90611e11565b60405180910390fd5b610b4e8d8c8e7e05a8e89d75252446eb5d5d5b1cc5edf20a1a059e10ca000000000000000000610fa8565b8314610b8f576040517f08c379a0000000000000000000000000000000000000000000000000000000008152600401610b8690611e7d565b60405180910390fd5b83610bba8b8b7e05a8e89d75252446eb5d5d5b1cc5edf20a1a059e10ca000000000000000000610ff2565b14610bfa576040517f08c379a0000000000000000000000000000000000000000000000000000000008152600401610bf190611ee9565b60405180910390fd5b7f000000000000000000000000000000000000000000000000000000000000000061ffff168b61ffff1614610c64576040517f08c379a0000000000000000000000000000000000000000000000000000000008152600401610c5b90611f55565b60405180910390fd5b600115157f000000000000000000000000000000000000000000000000000000000000000073ffffffffffffffffffffffffffffffffffffffff166365ab86278b8a6040518363ffffffff1660e01b8152600401610cc3929190611f75565b602060405180830381865afa158015610ce0573d6000803e3d6000fd5b505050506040513d601f19601f82011682018060405250810190610d049190611c2b565b151514610d46576040517f08c379a0000000000000000000000000000000000000000000000000000000008152600401610d3d90611fea565b60405180910390fd5b6001548614610d8a576040517f08c379a0000000000000000000000000000000000000000000000000000000008152600401610d8190612056565b60405180910390fd5b6003548214610dce576040517f08c379a0000000000000000000000000000000000000000000000000000000008152600401610dc5906120c2565b60405180910390fd5b809750505050505050509695505050505050565b600060018260ff1603610ebf5760008673ffffffffffffffffffffffffffffffffffffffff1663b3d3d0c6878787876040518563ffffffff1660e01b8152600401610e309493929190612170565b6020604051808303816000875af1158015610e4f573d6000803e3d6000fd5b505050506040513d601f19601f82011682018060405250810190610e739190611c2b565b905080610eb5576040517f08c379a0000000000000000000000000000000000000000000000000000000008152600401610eac9061220f565b60405180910390fd5b6001915050610f9f565b60028260ff1603610f9a5760008673ffffffffffffffffffffffffffffffffffffffff16635a88eef8878787876040518563ffffffff1660e01b8152600401610f0b9493929190612170565b6020604051808303816000875af1158015610f2a573d6000803e3d6000fd5b505050506040513d601f19601f82011682018060405250810190610f4e9190611c2b565b905080610f90576040517f08c379a0000000000000000000000000000000000000000000000000000000008152600401610f879061227b565b60405180910390fd5b6001915050610f9f565b600090505b95945050505050565b600080858585604051602001610fc09392919061229b565b6040516020818303038152906040528051906020012060001c90508281610fe79190612308565b915050949350505050565b6000808484604051602001611008929190612339565b6040516020818303038152906040528051906020012060001c9050828161102f9190612308565b9150509392505050565b6000604051905090565b600080fd5b600080fd5b6000819050919050565b6110608161104d565b811461106b57600080fd5b50565b60008135905061107d81611057565b92915050565b60006020828403121561109957611098611043565b5b60006110a78482850161106e565b91505092915050565b60008115159050919050565b6110c5816110b0565b82525050565b60006020820190506110e060008301846110bc565b92915050565b600073ffffffffffffffffffffffffffffffffffffffff82169050919050565b6000819050919050565b600061112b611126611121846110e6565b611106565b6110e6565b9050919050565b600061113d82611110565b9050919050565b600061114f82611132565b9050919050565b61115f81611144565b82525050565b600060208201905061117a6000830184611156565b92915050565b6111898161104d565b82525050565b60006020820190506111a46000830184611180565b92915050565b600061ffff82169050919050565b6111c1816111aa565b82525050565b60006020820190506111dc60008301846111b8565b92915050565b60006111ed826110e6565b9050919050565b6111fd816111e2565b82525050565b600060208201905061121860008301846111f4565b92915050565b600061122982611132565b9050919050565b6112398161121e565b82525050565b60006020820190506112546000830184611230565b92915050565b600080fd5b6000601f19601f8301169050919050565b7f4e487b7100000000000000000000000000000000000000000000000000000000600052604160045260246000fd5b6112a88261125f565b810181811067ffffffffffffffff821117156112c7576112c6611270565b5b80604052505050565b60006112da611039565b90506112e6828261129f565b919050565b600067ffffffffffffffff82111561130657611305611270565b5b602082029050919050565b600080fd5b6000611329611324846112eb565b6112d0565b9050806020840283018581111561134357611342611311565b5b835b8181101561136c5780611358888261106e565b845260208401935050602081019050611345565b5050509392505050565b600082601f83011261138b5761138a61125a565b5b6002611398848285611316565b91505092915050565b600067ffffffffffffffff8211156113bc576113bb611270565b5b602082029050919050565b60006113da6113d5846113a1565b6112d0565b905080604084028301858111156113f4576113f3611311565b5b835b8181101561141d57806114098882611376565b8452602084019350506040810190506113f6565b5050509392505050565b600082601f83011261143c5761143b61125a565b5b60026114498482856113c7565b91505092915050565b600067ffffffffffffffff82111561146d5761146c611270565b5b602082029050919050565b600061148b61148684611452565b6112d0565b905080602084028301858111156114a5576114a4611311565b5b835b818110156114ce57806114ba888261106e565b8452602084019350506020810190506114a7565b5050509392505050565b600082601f8301126114ed576114ec61125a565b5b600d6114fa848285611478565b91505092915050565b600080fd5b600067ffffffffffffffff82111561152357611522611270565b5b61152c8261125f565b9050602081019050919050565b82818337600083830152505050565b600061155b61155684611508565b6112d0565b90508281526020810184848401111561157757611576611503565b5b611582848285611539565b509392505050565b600082601f83011261159f5761159e61125a565b5b81356115af848260208601611548565b91505092915050565b6115c1816111e2565b81146115cc57600080fd5b50565b6000813590506115de816115b8565b92915050565b6115ed816111aa565b81146115f857600080fd5b50565b60008135905061160a816115e4565b92915050565b6000819050919050565b61162381611610565b811461162e57600080fd5b50565b6000813590506116408161161a565b92915050565b600060ff82169050919050565b61165c81611646565b811461166757600080fd5b50565b60008135905061167981611653565b92915050565b6000806000806000806000806000806103608b8d0312156116a3576116a2611043565b5b60006116b18d828e01611376565b9a505060406116c28d828e01611427565b99505060c06116d38d828e01611376565b9850506101006116e58d828e016114d8565b9750506102a08b013567ffffffffffffffff81111561170757611706611048565b5b6117138d828e0161158a565b9650506102c06117258d828e016115cf565b9550506102e08b013567ffffffffffffffff81111561174757611746611048565b5b6117538d828e0161158a565b9450506103006117658d828e016115fb565b9350506103206117778d828e01611631565b9250506103406117898d828e0161166a565b9150509295989b9194979a5092959850565b600082825260208201905092915050565b7f556e617574686f72697a65642061636365737300000000000000000000000000600082015250565b60006117e260138361179b565b91506117ed826117ac565b602082019050919050565b60006020820190508181036000830152611811816117d5565b9050919050565b7f5265656e7472616e637947756172643a207265656e7472616e742063616c6c00600082015250565b600061184e601f8361179b565b915061185982611818565b602082019050919050565b6000602082019050818103600083015261187d81611841565b9050919050565b7f526f6f7420616c72656164792065786973747300000000000000000000000000600082015250565b60006118ba60138361179b565b91506118c582611884565b602082019050919050565b600060208201905081810360008301526118e9816118ad565b9050919050565b7f4e487b7100000000000000000000000000000000000000000000000000000000600052603260045260246000fd5b7f546865206e6f746520686173206265656e20616c7265616479207370656e7400600082015250565b6000611955601f8361179b565b91506119608261191f565b602082019050919050565b6000602082019050818103600083015261198481611948565b9050919050565b600060029050919050565b600081905092915050565b6000819050919050565b6119b48161104d565b82525050565b60006119c683836119ab565b60208301905092915050565b6000602082019050919050565b6119e88161198b565b6119f28184611996565b92506119fd826119a1565b8060005b83811015611a2e578151611a1587826119ba565b9650611a20836119d2565b925050600181019050611a01565b505050505050565b600060029050919050565b600081905092915050565b6000819050919050565b600081905092915050565b611a6a8161198b565b611a748184611a56565b9250611a7f826119a1565b8060005b83811015611ab0578151611a9787826119ba565b9650611aa2836119d2565b925050600181019050611a83565b505050505050565b6000611ac48383611a61565b60408301905092915050565b6000602082019050919050565b611ae681611a36565b611af08184611a41565b9250611afb82611a4c565b8060005b83811015611b2c578151611b138782611ab8565b9650611b1e83611ad0565b925050600181019050611aff565b505050505050565b6000600d9050919050565b600081905092915050565b6000819050919050565b6000602082019050919050565b611b6a81611b34565b611b748184611b3f565b9250611b7f82611b4a565b8060005b83811015611bb0578151611b9787826119ba565b9650611ba283611b54565b925050600181019050611b83565b505050505050565b60006102a082019050611bce60008301876119df565b611bdb6040830186611add565b611be860c08301856119df565b611bf6610100830184611b61565b95945050505050565b611c08816110b0565b8114611c1357600080fd5b50565b600081519050611c2581611bff565b92915050565b600060208284031215611c4157611c40611043565b5b6000611c4f84828501611c16565b91505092915050565b7f496e76616c69642077697468647261772070726f6f6600000000000000000000600082015250565b6000611c8e60168361179b565b9150611c9982611c58565b602082019050919050565b60006020820190508181036000830152611cbd81611c81565b9050919050565b7f5550206661696c65640000000000000000000000000000000000000000000000600082015250565b6000611cfa60098361179b565b9150611d0582611cc4565b602082019050919050565b60006020820190508181036000830152611d2981611ced565b9050919050565b6000604082019050611d456000830185611180565b611d5260208301846111f4565b9392505050565b611d6281611610565b82525050565b6000602082019050611d7d6000830184611d59565b92915050565b600081519050611d92816115b8565b92915050565b600060208284031215611dae57611dad611043565b5b6000611dbc84828501611d83565b91505092915050565b7f43616e6e6f742066696e6420796f7572206d65726b6c6520726f6f7400000000600082015250565b6000611dfb601c8361179b565b9150611e0682611dc5565b602082019050919050565b60006020820190508181036000830152611e2a81611dee565b9050919050565b7f57726f6e67207072697661746520646174610000000000000000000000000000600082015250565b6000611e6760128361179b565b9150611e7282611e31565b602082019050919050565b60006020820190508181036000830152611e9681611e5a565b9050919050565b7f57726f6e67207075626c69632064617461000000000000000000000000000000600082015250565b6000611ed360118361179b565b9150611ede82611e9d565b602082019050919050565b60006020820190508181036000830152611f0281611ec6565b9050919050565b7f57726f6e672064657374696e6174696f6e20636861696e496400000000000000600082015250565b6000611f3f60198361179b565b9150611f4a82611f09565b602082019050919050565b60006020820190508181036000830152611f6e81611f32565b9050919050565b6000604082019050611f8a6000830185611d59565b611f976020830184611180565b9392505050565b7f57726f6e67204c656166207369676e6174757265000000000000000000000000600082015250565b6000611fd460148361179b565b9150611fdf82611f9e565b602082019050919050565b6000602082019050818103600083015261200381611fc7565b9050919050565b7f57726f6e6720656e6372797074207369676e6174757265000000000000000000600082015250565b600061204060178361179b565b915061204b8261200a565b602082019050919050565b6000602082019050818103600083015261206f81612033565b9050919050565b7f57726f6e6720626c61636b4c697374526f6f7400000000000000000000000000600082015250565b60006120ac60138361179b565b91506120b782612076565b602082019050919050565b600060208201905081810360008301526120db8161209f565b9050919050565b600081519050919050565b600082825260208201905092915050565b60005b8381101561211c578082015181840152602081019050612101565b60008484015250505050565b6000612133826120e2565b61213d81856120ed565b935061214d8185602086016120fe565b6121568161125f565b840191505092915050565b61216a81611646565b82525050565b6000608082019050818103600083015261218a8187612128565b9050818103602083015261219e8186612128565b90506121ad60408301856111f4565b6121ba6060830184612161565b95945050505050565b7f43616c6c204e6174697665206661696c65640000000000000000000000000000600082015250565b60006121f960128361179b565b9150612204826121c3565b602082019050919050565b60006020820190508181036000830152612228816121ec565b9050919050565b7f43616c6c204552433230206661696c6564000000000000000000000000000000600082015250565b600061226560118361179b565b91506122708261222f565b602082019050919050565b6000602082019050818103600083015261229481612258565b9050919050565b600060608201905081810360008301526122b58186612128565b90506122c460208301856111b8565b6122d160408301846111f4565b949350505050565b7f4e487b7100000000000000000000000000000000000000000000000000000000600052601260045260246000fd5b60006123138261104d565b915061231e8361104d565b92508261232e5761232d6122d9565b5b828206905092915050565b600060408201905081810360008301526123538185612128565b90506123626020830184611d59565b939250505056fea26469706673582212203a3ed897d396b6b3a3e9606ad63683f93d08db3aeed4316386fbe2788bb2c0fb64736f6c63430008130033",
  "linkReferences": {},
  "deployedLinkReferences": {}
}