{
  "_format": "hh-sol-artifact-1",
  "contractName": "UniversalPlugin",
  "sourceName": "contracts/UniversalPlugin.sol",
  "abi": [
    {
      "inputs": [
        {
          "internalType": "contract IdactRouter",
          "name": "_dactRouter",
          "type": "address"
        },
        {
          "internalType": "address",
          "name": "dactMixer",
          "type": "address"
        },
        {
          "internalType": "contract IProxy",
          "name": "_proxy",
          "type": "address"
        }
      ],
      "stateMutability": "nonpayable",
      "type": "constructor"
    },
    {
      "anonymous": false,
      "inputs": [
        {
          "indexed": false,
          "internalType": "address",
          "name": "dappSCaddress",
          "type": "address"
        },
        {
          "indexed": false,
          "internalType": "bytes32",
          "name": "dappGlobalHash",
          "type": "bytes32"
        }
      ],
      "name": "DappRegisterOk",
      "type": "event"
    },
    {
      "inputs": [],
      "name": "DactMixerAddress",
      "outputs": [
        {
          "internalType": "address",
          "name": "",
          "type": "address"
        }
      ],
      "stateMutability": "view",
      "type": "function"
    },
    {
      "inputs": [
        {
          "internalType": "bytes32",
          "name": "_commitment",
          "type": "bytes32"
        },
        {
          "internalType": "address",
          "name": "_tokenAddress",
          "type": "address"
        },
        {
          "internalType": "uint256",
          "name": "_amount",
          "type": "uint256"
        }
      ],
      "name": "DepositIntentErc20",
      "outputs": [],
      "stateMutability": "payable",
      "type": "function"
    },
    {
      "inputs": [
        {
          "internalType": "bytes32",
          "name": "_commitment",
          "type": "bytes32"
        }
      ],
      "name": "DepositIntentNative",
      "outputs": [],
      "stateMutability": "payable",
      "type": "function"
    },
    {
      "inputs": [
        {
          "internalType": "bytes",
          "name": "payload",
          "type": "bytes"
        },
        {
          "internalType": "bytes",
          "name": "userPublicData",
          "type": "bytes"
        },
        {
          "internalType": "address",
          "name": "targetSC",
          "type": "address"
        },
        {
          "internalType": "uint8",
          "name": "_funcSelectIn",
          "type": "uint8"
        }
      ],
      "name": "WithdrawIntentErc20",
      "outputs": [
        {
          "internalType": "bool",
          "name": "",
          "type": "bool"
        }
      ],
      "stateMutability": "nonpayable",
      "type": "function"
    },
    {
      "inputs": [
        {
          "internalType": "bytes",
          "name": "payload",
          "type": "bytes"
        },
        {
          "internalType": "bytes",
          "name": "userPublicData",
          "type": "bytes"
        },
        {
          "internalType": "address",
          "name": "targetSC",
          "type": "address"
        },
        {
          "internalType": "uint8",
          "name": "_funcSelectIn",
          "type": "uint8"
        }
      ],
      "name": "WithdrawIntentNative",
      "outputs": [
        {
          "internalType": "bool",
          "name": "",
          "type": "bool"
        }
      ],
      "stateMutability": "nonpayable",
      "type": "function"
    },
    {
      "inputs": [],
      "name": "dactRouter",
      "outputs": [
        {
          "internalType": "contract IdactRouter",
          "name": "",
          "type": "address"
        }
      ],
      "stateMutability": "view",
      "type": "function"
    },
    {
      "inputs": [],
      "name": "dactRouterAddress",
      "outputs": [
        {
          "internalType": "address",
          "name": "",
          "type": "address"
        }
      ],
      "stateMutability": "view",
      "type": "function"
    },
    {
      "inputs": [
        {
          "internalType": "address",
          "name": "",
          "type": "address"
        },
        {
          "internalType": "uint256",
          "name": "",
          "type": "uint256"
        }
      ],
      "name": "depositsByTokenAddress",
      "outputs": [
        {
          "internalType": "uint256",
          "name": "",
          "type": "uint256"
        }
      ],
      "stateMutability": "view",
      "type": "function"
    },
    {
      "inputs": [
        {
          "internalType": "address",
          "name": "",
          "type": "address"
        },
        {
          "internalType": "uint256",
          "name": "",
          "type": "uint256"
        }
      ],
      "name": "depositsByWithdrawalAddress",
      "outputs": [
        {
          "internalType": "uint256",
          "name": "",
          "type": "uint256"
        }
      ],
      "stateMutability": "view",
      "type": "function"
    },
    {
      "inputs": [],
      "name": "myDappGlobalHash",
      "outputs": [
        {
          "internalType": "bytes32",
          "name": "",
          "type": "bytes32"
        }
      ],
      "stateMutability": "view",
      "type": "function"
    },
    {
      "inputs": [],
      "name": "owner",
      "outputs": [
        {
          "internalType": "address",
          "name": "",
          "type": "address"
        }
      ],
      "stateMutability": "view",
      "type": "function"
    },
    {
      "inputs": [],
      "name": "proxy",
      "outputs": [
        {
          "internalType": "contract IProxy",
          "name": "",
          "type": "address"
        }
      ],
      "stateMutability": "view",
      "type": "function"
    },
    {
      "inputs": [
        {
          "internalType": "address[]",
          "name": "_imageHash",
          "type": "address[]"
        },
        {
          "internalType": "uint256",
          "name": "_pubkey",
          "type": "uint256"
        }
      ],
      "name": "registerSC",
      "outputs": [
        {
          "internalType": "bytes32",
          "name": "",
          "type": "bytes32"
        }
      ],
      "stateMutability": "nonpayable",
      "type": "function"
    }
  ],
  "bytecode": "0x6101206040523480156200001257600080fd5b506040516200286c3803806200286c83398181016040528101906200003891906200024a565b82828260016000819055508273ffffffffffffffffffffffffffffffffffffffff1660808173ffffffffffffffffffffffffffffffffffffffff16815250503373ffffffffffffffffffffffffffffffffffffffff166101008173ffffffffffffffffffffffffffffffffffffffff168152505060805173ffffffffffffffffffffffffffffffffffffffff1660c08173ffffffffffffffffffffffffffffffffffffffff16815250508173ffffffffffffffffffffffffffffffffffffffff1660e08173ffffffffffffffffffffffffffffffffffffffff16815250508073ffffffffffffffffffffffffffffffffffffffff1660a08173ffffffffffffffffffffffffffffffffffffffff1681525050505050505050620002a6565b600080fd5b600073ffffffffffffffffffffffffffffffffffffffff82169050919050565b600062000188826200015b565b9050919050565b60006200019c826200017b565b9050919050565b620001ae816200018f565b8114620001ba57600080fd5b50565b600081519050620001ce81620001a3565b92915050565b620001df816200017b565b8114620001eb57600080fd5b50565b600081519050620001ff81620001d4565b92915050565b600062000212826200017b565b9050919050565b620002248162000205565b81146200023057600080fd5b50565b600081519050620002448162000219565b92915050565b60008060006060848603121562000266576200026562000156565b5b60006200027686828701620001bd565b93505060206200028986828701620001ee565b92505060406200029c8682870162000233565b9150509250925092565b60805160a05160c05160e0516101005161253b6200033160003960008181610b680152610d570152600081816106ca01528181610da7015261111e015260006110d60152600081816108de015281816109a101528181610f2201528181610f8b01526110fa015260008181610493015281816105fe01528181610bf90152610d7b015261253b6000f3fe6080604052600436106100c25760003560e01c80638da5cb5b1161007f578063b3d3d0c611610059578063b3d3d0c614610274578063bdb80642146102b1578063ec556889146102dc578063f05fd71314610307576100c2565b80638da5cb5b146101f3578063ac4a8d2a1461021e578063aede2ac414610249576100c2565b8063262c2d41146100c75780633fd97b9b146100e357806343f9dce714610120578063530680d81461013c5780635a88eef81461017957806383cd1d41146101b6575b600080fd5b6100e160048036038101906100dc91906112cb565b610332565b005b3480156100ef57600080fd5b5061010a6004803603810190610105919061131e565b61052c565b604051610117919061136d565b60405180910390f35b61013a60048036038101906101359190611388565b61055d565b005b34801561014857600080fd5b50610163600480360381019061015e919061131e565b610695565b604051610170919061136d565b60405180910390f35b34801561018557600080fd5b506101a0600480360381019061019b9190611534565b6106c6565b6040516101ad91906115ee565b60405180910390f35b3480156101c257600080fd5b506101dd60048036038101906101d891906116d1565b610b64565b6040516101ea919061173c565b60405180910390f35b3480156101ff57600080fd5b50610208610d55565b6040516102159190611766565b60405180910390f35b34801561022a57600080fd5b50610233610d79565b60405161024091906117e0565b60405180910390f35b34801561025557600080fd5b5061025e610d9d565b60405161026b919061173c565b60405180910390f35b34801561028057600080fd5b5061029b60048036038101906102969190611534565b610da3565b6040516102a891906115ee565b60405180910390f35b3480156102bd57600080fd5b506102c66110d4565b6040516102d39190611766565b60405180910390f35b3480156102e857600080fd5b506102f16110f8565b6040516102fe919061181c565b60405180910390f35b34801561031357600080fd5b5061031c61111c565b6040516103299190611766565b60405180910390f35b600260005403610377576040517f08c379a000000000000000000000000000000000000000000000000000000000815260040161036e90611894565b60405180910390fd5b6002600081905550600081116103c2576040517f08c379a00000000000000000000000000000000000000000000000000000000081526004016103b990611926565b60405180910390fd5b8173ffffffffffffffffffffffffffffffffffffffff166323b872dd3330846040518463ffffffff1660e01b81526004016103ff93929190611946565b6020604051808303816000875af115801561041e573d6000803e3d6000fd5b505050506040513d601f19601f8201168201806040525081019061044291906119a9565b610481576040517f08c379a000000000000000000000000000000000000000000000000000000000815260040161047890611a22565b60405180910390fd5b600061048f83836002611140565b90507f000000000000000000000000000000000000000000000000000000000000000073ffffffffffffffffffffffffffffffffffffffff1663c1d062af85836040518363ffffffff1660e01b81526004016104ec929190611ac1565b600060405180830381600087803b15801561050657600080fd5b505af115801561051a573d6000803e3d6000fd5b50505050506001600081905550505050565b6003602052816000526040600020818154811061054857600080fd5b90600052602060002001600091509150505481565b6002600054036105a2576040517f08c379a000000000000000000000000000000000000000000000000000000000815260040161059990611894565b60405180910390fd5b6002600081905550600034116105ed576040517f08c379a00000000000000000000000000000000000000000000000000000000081526004016105e490611b63565b60405180910390fd5b60006105fa346001611175565b90507f000000000000000000000000000000000000000000000000000000000000000073ffffffffffffffffffffffffffffffffffffffff1663c1d062af83836040518363ffffffff1660e01b8152600401610657929190611ac1565b600060405180830381600087803b15801561067157600080fd5b505af1158015610685573d6000803e3d6000fd5b5050505050600160008190555050565b600260205281600052604060002081815481106106b157600080fd5b90600052602060002001600091509150505481565b60007f000000000000000000000000000000000000000000000000000000000000000073ffffffffffffffffffffffffffffffffffffffff163373ffffffffffffffffffffffffffffffffffffffff1614610756576040517f08c379a000000000000000000000000000000000000000000000000000000000815260040161074d90611bf5565b60405180910390fd5b60026000540361079b576040517f08c379a000000000000000000000000000000000000000000000000000000000815260040161079290611894565b60405180910390fd5b600260008190555060008060006107b1876111a7565b9250925092508060ff168560ff16146107ff576040517f08c379a00000000000000000000000000000000000000000000000000000000081526004016107f690611c61565b60405180910390fd5b60008373ffffffffffffffffffffffffffffffffffffffff166370a08231306040518263ffffffff1660e01b815260040161083a9190611766565b602060405180830381865afa158015610857573d6000803e3d6000fd5b505050506040513d601f19601f8201168201806040525081019061087b9190611c96565b9050600081116108c0576040517f08c379a00000000000000000000000000000000000000000000000000000000081526004016108b790611d35565b60405180910390fd5b8373ffffffffffffffffffffffffffffffffffffffff1663a9059cbb7f0000000000000000000000000000000000000000000000000000000000000000856040518363ffffffff1660e01b815260040161091b929190611d55565b6020604051808303816000875af115801561093a573d6000803e3d6000fd5b505050506040513d601f19601f8201168201806040525081019061095e91906119a9565b61099d576040517f08c379a000000000000000000000000000000000000000000000000000000000815260040161099490611df0565b60405180910390fd5b60007f000000000000000000000000000000000000000000000000000000000000000073ffffffffffffffffffffffffffffffffffffffff1663f8d2962e8b8a6040518363ffffffff1660e01b81526004016109fa929190611e10565b6020604051808303816000875af1158015610a19573d6000803e3d6000fd5b505050506040513d601f19601f82011682018060405250810190610a3d91906119a9565b905080610a7f576040517f08c379a0000000000000000000000000000000000000000000000000000000008152600401610a7690611e8c565b60405180910390fd5b60008573ffffffffffffffffffffffffffffffffffffffff166370a08231306040518263ffffffff1660e01b8152600401610aba9190611766565b602060405180830381865afa158015610ad7573d6000803e3d6000fd5b505050506040513d601f19601f82011682018060405250810190610afb9190611c96565b9050848184610b0a9190611edb565b14610b4a576040517f08c379a0000000000000000000000000000000000000000000000000000000008152600401610b4190611f81565b60405180910390fd5b600196505050505050506001600081905550949350505050565b60007f000000000000000000000000000000000000000000000000000000000000000073ffffffffffffffffffffffffffffffffffffffff163373ffffffffffffffffffffffffffffffffffffffff1614610bf4576040517f08c379a0000000000000000000000000000000000000000000000000000000008152600401610beb90611fed565b60405180910390fd5b6000807f000000000000000000000000000000000000000000000000000000000000000073ffffffffffffffffffffffffffffffffffffffff166365a1d7c486866040518363ffffffff1660e01b8152600401610c529291906120cb565b60408051808303816000875af1158015610c70573d6000803e3d6000fd5b505050506040513d601f19601f82011682018060405250810190610c949190612125565b80935081925050503073ffffffffffffffffffffffffffffffffffffffff168173ffffffffffffffffffffffffffffffffffffffff1614610d0a576040517f08c379a0000000000000000000000000000000000000000000000000000000008152600401610d01906121d7565b60405180910390fd5b816001819055507f0d2870fbcee1137f1752115373565d149b07bd2a2e353b1b43abedead289fa403083604051610d429291906121f7565b60405180910390a1819250505092915050565b7f000000000000000000000000000000000000000000000000000000000000000081565b7f000000000000000000000000000000000000000000000000000000000000000081565b60015481565b60007f000000000000000000000000000000000000000000000000000000000000000073ffffffffffffffffffffffffffffffffffffffff163373ffffffffffffffffffffffffffffffffffffffff1614610e33576040517f08c379a0000000000000000000000000000000000000000000000000000000008152600401610e2a90611bf5565b60405180910390fd5b600260005403610e78576040517f08c379a0000000000000000000000000000000000000000000000000000000008152600401610e6f90611894565b60405180910390fd5b6002600081905550600080610e8c866111cd565b915091508060ff168460ff1614610ed8576040517f08c379a0000000000000000000000000000000000000000000000000000000008152600401610ecf9061226c565b60405180910390fd5b600047905060008111610f20576040517f08c379a0000000000000000000000000000000000000000000000000000000008152600401610f17906122fe565b60405180910390fd5b7f000000000000000000000000000000000000000000000000000000000000000073ffffffffffffffffffffffffffffffffffffffff166108fc849081150290604051600060405180830381858888f19350505050158015610f86573d6000803e3d6000fd5b5060007f000000000000000000000000000000000000000000000000000000000000000073ffffffffffffffffffffffffffffffffffffffff1663f8d2962e8a896040518363ffffffff1660e01b8152600401610fe4929190611e10565b6020604051808303816000875af1158015611003573d6000803e3d6000fd5b505050506040513d601f19601f8201168201806040525081019061102791906119a9565b905080611069576040517f08c379a000000000000000000000000000000000000000000000000000000000815260040161106090611e8c565b60405180910390fd5b600047905084818461107b9190611edb565b146110bb576040517f08c379a00000000000000000000000000000000000000000000000000000000081526004016110b290612390565b60405180910390fd5b6001955050505050506001600081905550949350505050565b7f000000000000000000000000000000000000000000000000000000000000000081565b7f000000000000000000000000000000000000000000000000000000000000000081565b7f000000000000000000000000000000000000000000000000000000000000000081565b60606000848484604051602001611159939291906123bf565b6040516020818303038152906040529050809150509392505050565b60606000838360405160200161118c9291906123f6565b60405160208183030381529060405290508091505092915050565b6000806000838060200190518101906111c09190612472565b9250925092509193909250565b600080828060200190518101906111e491906124c5565b91509150915091565b6000604051905090565b600080fd5b600080fd5b6000819050919050565b61121481611201565b811461121f57600080fd5b50565b6000813590506112318161120b565b92915050565b600073ffffffffffffffffffffffffffffffffffffffff82169050919050565b600061126282611237565b9050919050565b61127281611257565b811461127d57600080fd5b50565b60008135905061128f81611269565b92915050565b6000819050919050565b6112a881611295565b81146112b357600080fd5b50565b6000813590506112c58161129f565b92915050565b6000806000606084860312156112e4576112e36111f7565b5b60006112f286828701611222565b935050602061130386828701611280565b9250506040611314868287016112b6565b9150509250925092565b60008060408385031215611335576113346111f7565b5b600061134385828601611280565b9250506020611354858286016112b6565b9150509250929050565b61136781611295565b82525050565b6000602082019050611382600083018461135e565b92915050565b60006020828403121561139e5761139d6111f7565b5b60006113ac84828501611222565b91505092915050565b600080fd5b600080fd5b6000601f19601f8301169050919050565b7f4e487b7100000000000000000000000000000000000000000000000000000000600052604160045260246000fd5b611408826113bf565b810181811067ffffffffffffffff82111715611427576114266113d0565b5b80604052505050565b600061143a6111ed565b905061144682826113ff565b919050565b600067ffffffffffffffff821115611466576114656113d0565b5b61146f826113bf565b9050602081019050919050565b82818337600083830152505050565b600061149e6114998461144b565b611430565b9050828152602081018484840111156114ba576114b96113ba565b5b6114c584828561147c565b509392505050565b600082601f8301126114e2576114e16113b5565b5b81356114f284826020860161148b565b91505092915050565b600060ff82169050919050565b611511816114fb565b811461151c57600080fd5b50565b60008135905061152e81611508565b92915050565b6000806000806080858703121561154e5761154d6111f7565b5b600085013567ffffffffffffffff81111561156c5761156b6111fc565b5b611578878288016114cd565b945050602085013567ffffffffffffffff811115611599576115986111fc565b5b6115a5878288016114cd565b93505060406115b687828801611280565b92505060606115c78782880161151f565b91505092959194509250565b60008115159050919050565b6115e8816115d3565b82525050565b600060208201905061160360008301846115df565b92915050565b600067ffffffffffffffff821115611624576116236113d0565b5b602082029050602081019050919050565b600080fd5b600061164d61164884611609565b611430565b905080838252602082019050602084028301858111156116705761166f611635565b5b835b8181101561169957806116858882611280565b845260208401935050602081019050611672565b5050509392505050565b600082601f8301126116b8576116b76113b5565b5b81356116c884826020860161163a565b91505092915050565b600080604083850312156116e8576116e76111f7565b5b600083013567ffffffffffffffff811115611706576117056111fc565b5b611712858286016116a3565b9250506020611723858286016112b6565b9150509250929050565b61173681611201565b82525050565b6000602082019050611751600083018461172d565b92915050565b61176081611257565b82525050565b600060208201905061177b6000830184611757565b92915050565b6000819050919050565b60006117a66117a161179c84611237565b611781565b611237565b9050919050565b60006117b88261178b565b9050919050565b60006117ca826117ad565b9050919050565b6117da816117bf565b82525050565b60006020820190506117f560008301846117d1565b92915050565b6000611806826117ad565b9050919050565b611816816117fb565b82525050565b6000602082019050611831600083018461180d565b92915050565b600082825260208201905092915050565b7f5265656e7472616e637947756172643a207265656e7472616e742063616c6c00600082015250565b600061187e601f83611837565b915061188982611848565b602082019050919050565b600060208201905081810360008301526118ad81611871565b9050919050565b7f546f6b656e7320616d6f756e74206d757374206265206772656174657220746860008201527f616e203000000000000000000000000000000000000000000000000000000000602082015250565b6000611910602483611837565b915061191b826118b4565b604082019050919050565b6000602082019050818103600083015261193f81611903565b9050919050565b600060608201905061195b6000830186611757565b6119686020830185611757565b611975604083018461135e565b949350505050565b611986816115d3565b811461199157600080fd5b50565b6000815190506119a38161197d565b92915050565b6000602082840312156119bf576119be6111f7565b5b60006119cd84828501611994565b91505092915050565b7f4661696c656420746f207472616e7366657220746f6b656e7320746f20555000600082015250565b6000611a0c601f83611837565b9150611a17826119d6565b602082019050919050565b60006020820190508181036000830152611a3b816119ff565b9050919050565b600081519050919050565b600082825260208201905092915050565b60005b83811015611a7c578082015181840152602081019050611a61565b60008484015250505050565b6000611a9382611a42565b611a9d8185611a4d565b9350611aad818560208601611a5e565b611ab6816113bf565b840191505092915050565b6000604082019050611ad6600083018561172d565b8181036020830152611ae88184611a88565b90509392505050565b7f4e617469766520616d6f756e74206d757374206265206772656174657220746860008201527f616e203000000000000000000000000000000000000000000000000000000000602082015250565b6000611b4d602483611837565b9150611b5882611af1565b604082019050919050565b60006020820190508181036000830152611b7c81611b40565b9050919050565b7f556e617574686f72697a6564206163636573732e204f6e6c792044414354206d60008201527f6978657200000000000000000000000000000000000000000000000000000000602082015250565b6000611bdf602483611837565b9150611bea82611b83565b604082019050919050565b60006020820190508181036000830152611c0e81611bd2565b9050919050565b7f57726f6e672066756e6374696f6e2c206e6f2045524332300000000000000000600082015250565b6000611c4b601883611837565b9150611c5682611c15565b602082019050919050565b60006020820190508181036000830152611c7a81611c3e565b9050919050565b600081519050611c908161129f565b92915050565b600060208284031215611cac57611cab6111f7565b5b6000611cba84828501611c81565b91505092915050565b7f555020646f6573206e6f74206861766520656e6f7567682062616c616e63652060008201527f666f722074686973204552433230000000000000000000000000000000000000602082015250565b6000611d1f602e83611837565b9150611d2a82611cc3565b604082019050919050565b60006020820190508181036000830152611d4e81611d12565b9050919050565b6000604082019050611d6a6000830185611757565b611d77602083018461135e565b9392505050565b7f4661696c656420746f207472616e7366657220746f6b656e7320746f2050726f60008201527f7879000000000000000000000000000000000000000000000000000000000000602082015250565b6000611dda602283611837565b9150611de582611d7e565b604082019050919050565b60006020820190508181036000830152611e0981611dcd565b9050919050565b60006040820190508181036000830152611e2a8185611a88565b9050611e396020830184611757565b9392505050565b7f50726f7879206661696c65640000000000000000000000000000000000000000600082015250565b6000611e76600c83611837565b9150611e8182611e40565b602082019050919050565b60006020820190508181036000830152611ea581611e69565b9050919050565b7f4e487b7100000000000000000000000000000000000000000000000000000000600052601160045260246000fd5b6000611ee682611295565b9150611ef183611295565b9250828203905081811115611f0957611f08611eac565b5b92915050565b7f546865204552433230207769746864726177616c20646f6573206e6f7420636f60008201527f727265706f6e6420746f20746865206c6f636b656420616d6f756e7400000000602082015250565b6000611f6b603c83611837565b9150611f7682611f0f565b604082019050919050565b60006020820190508181036000830152611f9a81611f5e565b9050919050565b7f556e617574686f72697a6564206163636573732e204f6e6c79204f776e657200600082015250565b6000611fd7601f83611837565b9150611fe282611fa1565b602082019050919050565b6000602082019050818103600083015261200681611fca565b9050919050565b600081519050919050565b600082825260208201905092915050565b6000819050602082019050919050565b61204281611257565b82525050565b60006120548383612039565b60208301905092915050565b6000602082019050919050565b60006120788261200d565b6120828185612018565b935061208d83612029565b8060005b838110156120be5781516120a58882612048565b97506120b083612060565b925050600181019050612091565b5085935050505092915050565b600060408201905081810360008301526120e5818561206d565b90506120f4602083018461135e565b9392505050565b60008151905061210a81611269565b92915050565b60008151905061211f8161120b565b92915050565b6000806040838503121561213c5761213b6111f7565b5b600061214a858286016120fb565b925050602061215b85828601612110565b9150509250929050565b7f416472657373534320616e64205265676973746572656420616464726573732060008201527f61726520646966666572656e7400000000000000000000000000000000000000602082015250565b60006121c1602d83611837565b91506121cc82612165565b604082019050919050565b600060208201905081810360008301526121f0816121b4565b9050919050565b600060408201905061220c6000830185611757565b612219602083018461172d565b9392505050565b7f57726f6e672066756e6374696f6e2c206e6f204e617469766500000000000000600082015250565b6000612256601983611837565b915061226182612220565b602082019050919050565b6000602082019050818103600083015261228581612249565b9050919050565b7f555020646f6573206e6f74206861766520656e6f7567682062616c616e63652060008201527f666f72204e617469766500000000000000000000000000000000000000000000602082015250565b60006122e8602a83611837565b91506122f38261228c565b604082019050919050565b60006020820190508181036000830152612317816122db565b9050919050565b7f546865204e6174697665207769746864726177616c20646f6573206e6f74206360008201527f6f727265706f6e6420746f20746865206c6f636b656420616d6f756e74000000602082015250565b600061237a603d83611837565b91506123858261231e565b604082019050919050565b600060208201905081810360008301526123a98161236d565b9050919050565b6123b9816114fb565b82525050565b60006060820190506123d46000830186611757565b6123e1602083018561135e565b6123ee60408301846123b0565b949350505050565b600060408201905061240b600083018561135e565b61241860208301846123b0565b9392505050565b600061242a82611237565b9050919050565b61243a8161241f565b811461244557600080fd5b50565b60008151905061245781612431565b92915050565b60008151905061246c81611508565b92915050565b60008060006060848603121561248b5761248a6111f7565b5b600061249986828701612448565b93505060206124aa86828701611c81565b92505060406124bb8682870161245d565b9150509250925092565b600080604083850312156124dc576124db6111f7565b5b60006124ea85828601611c81565b92505060206124fb8582860161245d565b915050925092905056fea2646970667358221220b66e4835e87fbb83582975b35ead1b23fb2f3f7311f3476e5ae9aeca5187dc3864736f6c63430008130033",
  "linkReferences": {},
  "deployedLinkReferences": {}
}